{
  "contractName": "TestWallet",
  "abi": [
    {
      "inputs": [],
      "payable": false,
      "stateMutability": "nonpayable",
      "type": "constructor"
    },
    {
      "anonymous": false,
      "inputs": [
        {
          "indexed": true,
          "internalType": "address",
          "name": "sender",
          "type": "address"
        },
        {
          "indexed": false,
          "internalType": "uint256",
          "name": "value",
          "type": "uint256"
        }
      ],
      "name": "Deposit",
      "type": "event"
    },
    {
      "anonymous": false,
      "inputs": [
        {
          "indexed": true,
          "internalType": "uint256",
          "name": "transactionId",
          "type": "uint256"
        }
      ],
      "name": "Execution",
      "type": "event"
    },
    {
      "payable": true,
      "stateMutability": "payable",
      "type": "fallback"
    },
    {
      "constant": true,
      "inputs": [],
      "name": "transactionCount",
      "outputs": [
        {
          "internalType": "uint256",
          "name": "",
          "type": "uint256"
        }
      ],
      "payable": false,
      "stateMutability": "view",
      "type": "function"
    },
    {
      "constant": true,
      "inputs": [
        {
          "internalType": "uint256",
          "name": "",
          "type": "uint256"
        }
      ],
      "name": "transactions",
      "outputs": [
        {
          "internalType": "address payable",
          "name": "destination",
          "type": "address"
        },
        {
          "internalType": "uint256",
          "name": "value",
          "type": "uint256"
        },
        {
          "internalType": "bytes",
          "name": "data",
          "type": "bytes"
        },
        {
          "internalType": "bool",
          "name": "executed",
          "type": "bool"
        }
      ],
      "payable": false,
      "stateMutability": "view",
      "type": "function"
    },
    {
      "constant": false,
      "inputs": [
        {
          "internalType": "address payable",
          "name": "destination",
          "type": "address"
        },
        {
          "internalType": "uint256",
          "name": "value",
          "type": "uint256"
        },
        {
          "internalType": "bytes",
          "name": "data",
          "type": "bytes"
        }
      ],
      "name": "submitTransaction",
      "outputs": [
        {
          "internalType": "uint256",
          "name": "transactionId",
          "type": "uint256"
        }
      ],
      "payable": false,
      "stateMutability": "nonpayable",
      "type": "function"
    },
    {
      "constant": false,
      "inputs": [
        {
          "internalType": "uint256",
          "name": "transactionId",
          "type": "uint256"
        }
      ],
      "name": "executeTransaction",
      "outputs": [],
      "payable": false,
      "stateMutability": "nonpayable",
      "type": "function"
    }
  ],
  "bytecode": "0x608060405234801561001057600080fd5b5061073d806100206000396000f3fe60806040526004361061003f5760003560e01c80639ace38c214610099578063b77bf60014610192578063c6427474146101bd578063ee22610b146102c3575b6000341115610097573373ffffffffffffffffffffffffffffffffffffffff167fe1fffcc4923d04b559f4d29a8bfc6cda04eb5b0d3c460751c2402c5c5cc9109c346040518082815260200191505060405180910390a25b005b3480156100a557600080fd5b506100d2600480360360208110156100bc57600080fd5b81019080803590602001909291905050506102fe565b604051808573ffffffffffffffffffffffffffffffffffffffff1673ffffffffffffffffffffffffffffffffffffffff1681526020018481526020018060200183151515158152602001828103825284818151815260200191508051906020019080838360005b83811015610154578082015181840152602081019050610139565b50505050905090810190601f1680156101815780820380516001836020036101000a031916815260200191505b509550505050505060405180910390f35b34801561019e57600080fd5b506101a76103f3565b6040518082815260200191505060405180910390f35b3480156101c957600080fd5b506102ad600480360360608110156101e057600080fd5b81019080803573ffffffffffffffffffffffffffffffffffffffff169060200190929190803590602001909291908035906020019064010000000081111561022757600080fd5b82018360208201111561023957600080fd5b8035906020019184600183028401116401000000008311171561025b57600080fd5b91908080601f016020809104026020016040519081016040528093929190818152602001838380828437600081840152601f19601f8201169050808301925050505050505091929192905050506103f9565b6040518082815260200191505060405180910390f35b3480156102cf57600080fd5b506102fc600480360360208110156102e657600080fd5b810190808035906020019092919050505061040f565b005b60006020528060005260406000206000915090508060000160009054906101000a900473ffffffffffffffffffffffffffffffffffffffff1690806001015490806002018054600181600116156101000203166002900480601f0160208091040260200160405190810160405280929190818152602001828054600181600116156101000203166002900480156103d65780601f106103ab576101008083540402835291602001916103d6565b820191906000526020600020905b8154815290600101906020018083116103b957829003601f168201915b5050505050908060030160009054906101000a900460ff16905084565b60015481565b600061040684848461056d565b90509392505050565b6000806000838152602001908152602001600020905060018160030160006101000a81548160ff02191690831515021790555060008160000160009054906101000a900473ffffffffffffffffffffffffffffffffffffffff16905060008173ffffffffffffffffffffffffffffffffffffffff1683600101548460020160405180828054600181600116156101000203166002900480156104e85780601f106104c65761010080835404028352918201916104e8565b820191906000526020600020905b8154815290600101906020018083116104d4575b505091505060006040518083038185875af1925050503d806000811461052a576040519150601f19603f3d011682016040523d82523d6000602084013e61052f565b606091505b50509050801561056757837f33e13ecb54c3076d8e8bb8c2881800a4d972b792045ffae98fdf46df365fed7560405160405180910390a25b50505050565b6000600154905060405180608001604052808573ffffffffffffffffffffffffffffffffffffffff1681526020018481526020018381526020016000151581525060008083815260200190815260200160002060008201518160000160006101000a81548173ffffffffffffffffffffffffffffffffffffffff021916908373ffffffffffffffffffffffffffffffffffffffff16021790555060208201518160010155604082015181600201908051906020019061062d929190610663565b5060608201518160030160006101000a81548160ff02191690831515021790555090505060018054016001819055509392505050565b828054600181600116156101000203166002900490600052602060002090601f016020900481019282601f106106a457805160ff19168380011785556106d2565b828001600101855582156106d2579182015b828111156106d15782518255916020019190600101906106b6565b5b5090506106df91906106e3565b5090565b61070591905b808211156107015760008160009055506001016106e9565b5090565b9056fea265627a7a72315820dcf3e927c83756fdc31cd3e36c6dbed46bdd548d19c044055784774134e46d3664736f6c634300050c0032",
  "source": "pragma solidity ^0.5.0;\r\ncontract TestWallet {\r\n\r\n    event Deposit(address indexed sender, uint value);\r\n    event Execution(uint indexed transactionId);\r\n    \r\n    mapping (uint => Transaction) public transactions;\r\n    uint public transactionCount;\r\n    struct Transaction {\r\n        address payable destination;\r\n        uint value;\r\n        bytes data;\r\n        bool executed;\r\n    }\r\n    function()\r\n        external\r\n        payable\r\n    {\r\n        if (msg.value > 0)\r\n            emit Deposit(msg.sender, msg.value);\r\n    }\r\n    constructor()\r\n        public\r\n    {\r\n        \r\n    }\r\n    function submitTransaction(address payable destination, uint value, bytes memory data)\r\n        public\r\n        returns (uint transactionId)\r\n    {\r\n        transactionId = addTransaction(destination, value, data);\r\n    }\r\n    function executeTransaction(uint transactionId)\r\n        public\r\n    {\r\n        Transaction storage txToExecute = transactions[transactionId];\r\n        txToExecute.executed = true;\r\n        address payable addr = txToExecute.destination;\r\n        (bool x, ) = addr.call.value(txToExecute.value)(txToExecute.data);\r\n        if (x)\r\n            emit Execution(transactionId);\r\n            \r\n    }\r\n    function addTransaction(address payable destination, uint value, bytes memory data)\r\n    internal\r\n    returns (uint transactionId)\r\n    {\r\n        transactionId = transactionCount;\r\n        transactions[transactionId] = Transaction({\r\n            destination: destination,\r\n            value: value,\r\n            data: data,\r\n            executed: false\r\n        });\r\n        transactionCount = transactionCount + 1;\r\n    }\r\n}",
  "sourcePath": "F:/Study/FTEC5520/proj/ftec-5520/contracts/TestWallet.sol",
  "compiler": {
    "name": "solc",
    "version": "0.5.12+commit.7709ece9.Emscripten.clang"
  },
  "schemaVersion": "3.0.19",
  "updatedAt": "2019-11-21T07:10:58.633Z",
  "networkType": "ethereum",
  "devdoc": {
    "methods": {}
  },
  "userdoc": {
    "methods": {}
  }
}